:020000040000FA
:100000000C94FE000C9426010C9426010C94DD1037
:100010000C94DD100C94DD100C9426010C94260138
:100020000C9426010C9426010C9426010C942601B4
:100030000C9426010C9426010C9426010C942601A4
:100040000C9493100C9426010C9426010C94260118
:100050000C9426010C9426010C9426010C94260184
:100060000C9426010C9426014E414E494E49545998
:10007000494E46CDCCCC3D0AD7233C17B7D1387773
:10008000CC2B329595E6241FB14F0A000020410089
:1000900000C84200401C4620BCBE4CCA1B0E5AAED3
:1000A000C59D7400407A10F35A00A0724E180900E2
:1000B00010A5D4E80000E87648170000E40B5402CD
:1000C0000000CA9A3B000000E1F505000080969808
:1000D00000000040420F000000A086010000001058
:1000E0002700000000E8030000000064000000009A
:1000F000000A00000000000100000000002C76D87B
:1001000088DC674F0823DFC1DFAE59E1B1B796E560
:10011000E3E453C63AE651997696E8E6C28426EBC4
:10012000898C9B62ED407C6FFCEFBC9C9F40F2BAD7
:10013000A56FA5F490055A2AF75C936B6CF9676D6F
:10014000C11BFCE0E40D47FEF520E6B500D0ED90C4
:100150002E0300943577050080841E080000204E91
:100160000A000000C80C333333330F986E1283112A
:1001700041EF8D2114893BE65516CFFEE6DB18D101
:10018000844B381BF77C1D901DA4BBE424203284D3
:10019000725E228100C9F124ECA1E53D2700000038
:1001A00000240027002A0000000000250028002B62
:1001B00000000000002300260029000404040404B9
:1001C0000404040202020202020303030303030104
:1001D00002040810204080010204081020010204DB
:1001E00008102000000008000201000003040700BE
:1001F00000000000000000000D13A31311241FBE17
:10020000CFEFD8E0DEBFCDBF24E0A8EFB3E001C060
:100210001D92AD39B207E1F713E0A0E0B1E0E0E0F4
:10022000FAE302C005900D92A83FB107D9F710E09C
:10023000CDEFD0E004C02197FE010E94FB1ACC3F15
:10024000D107C9F70E9455110C94F31C0C940000BF
:100250003F924F925F926F927F928F929F92AF9256
:10026000BF92CF92DF92EF92FF920F931F93CF93A3
:10027000DF937C01062F6C0184E0C80ED11C11E0D5
:100280001017A0F5F60181909190A190B1906F01A7
:10029000312EC32DD0E0C150D04CCC0FDD1FCC0F80
:1002A000DD1FF701EC0FFD1F4080518062807380DD
:1002B0002496CE0DDF1DA3019201C501B4010E9459
:1002C0002B1887FF07C0488259826A827B823A9442
:1002D0003110DFCF84E0389EF0011124EE0DFF1DB8
:1002E00080829182A282B3821F5FCACFDF91CF91B9
:1002F0001F910F91FF90EF90DF90CF90BF90AF9044
:100300009F908F907F906F905F904F903F90089557
:10031000FC01248135816217730748F48081918143
:10032000009729F0860F971FFC018081089580E0D7
:1003300008950895AF92BF92CF92DF92EF92FF920D
:100340000F931F93CF93DF936C017B018B01040FFD
:10035000151FEB015E01AE18BF08C017D10759F099
:100360006991D601ED91FC910190F081E02DC601DB
:100370000995892B79F7C501DF91CF911F910F91D5
:10038000FF90EF90DF90CF90BF90AF9008958330B3
:1003900081F028F4813099F08230A9F008958730F7
:1003A000A9F08830C9F08430B1F4809180008F7D4D
:1003B00003C0809180008F7780938000089584B57A
:1003C0008F7784BD089584B58F7DFBCF8091B00079
:1003D0008F778093B00008958091B0008F7DF9CF22
:1003E000CF93DF93282F30E0F901ED51FE4F849138
:1003F000F901E153FE4FD491F901E554FE4FC49148
:10040000CC23A1F081110E94C701EC2FF0E0EE0F88
:10041000FF1FEF54FE4FA591B491EC91ED2381E0C5
:1004200090E009F480E0DF91CF91089580E090E0C2
:10043000FACF1F93CF93DF93282F30E0F901ED51CE
:10044000FE4F8491F901E153FE4FD491F901E55437
:10045000FE4FC491CC23A9F0162F81110E94C70131
:10046000EC2FF0E0EE0FFF1FE955FE4FA591B49180
:100470008FB7F894EC91111108C0D095DE23DC936E
:100480008FBFDF91CF911F910895DE2BF8CFCF93CF
:10049000DF9390E0FC01E153FE4F249185549E4F81
:1004A000FC0184918823D1F090E0880F991FFC0112
:1004B000E356FE4FA591B491FC01E955FE4FC5915D
:1004C000D49161110EC09FB7F8948C91E22FE09502
:1004D0008E238C932881E223E8839FBFDF91CF9105
:1004E00008958FB7F894EC91E22BEC938FBFF6CF81
:1004F0003FB7F89480914A0490914B04A0914C042A
:10050000B0914D0426B5A89B05C02F3F19F0019668
:10051000A11DB11D3FBFBA2FA92F982F8827BC015D
:10052000CD01620F711D811D911D42E0660F771F85
:10053000881F991F4A95D1F708958F929F92AF9285
:10054000BF92CF92DF92EF92FF924B015C010E942B
:1005500078026B017C010E9478026C197D098E097A
:100560009F09683E734081059105A8F321E0821A36
:100570009108A108B10888EEC80E83E0D81EE11CDE
:10058000F11C81149104A104B10429F7FF90EF90AC
:10059000DF90CF90BF90AF909F908F900895209163
:1005A0005004309151042817390771F490914E048A
:1005B00080914F04981741F0E0914E04F0E0E75F1E
:1005C000FB4F808190E008958FEF9FEF089508958D
:1005D000EF92FF920F931F93CF93DF93DC015C9612
:1005E000ED90FC905D97E114F10479F481E090E0E6
:1005F00013969C938E93129790E080E0DF91CF91B9
:100600001F910F91FF90EF9008955196ED91FC91FD
:10061000529750968C915097982F90950FB75E9661
:100620002C915E97122F127021FD6095F894208115
:10063000112319F1282B2083E7012197F1F728E0F6
:10064000462F50E0308160FF1AC0382B3083E7011D
:100650002197F1F7BA0175956795215089F7112314
:1006600081F08081892380830FBF5C968D919C915E
:100670000197F1F781E090E0C1CF2923DCCF392346
:10068000E5CF9081892BEFCF209150043091510418
:100690002817390771F480914F0420914E0490E09F
:1006A000805C9F4F821B910960E470E00E94D31A26
:1006B000089590E080E00895209150043091510415
:1006C00028173907B9F490914E0480914F04981778
:1006D00089F0E0914E04F0E0E75FFB4F80812091CC
:1006E0004E0430E02F5F3F4F2F73332720934E048B
:1006F00090E008958FEF9FEF08952FB7F8948091C1
:10070000600490916104A0916204B09163042FBFD2
:100710008093800490938104A0938204B093830417
:1007200088E794E00E945C0397FF26C02FB7F894F7
:100730008091600490916104A0916204B09163047F
:100740002FBF409180045091810460918204709188
:100750008304841B950BA60BB70B40917C0450912E
:100760007D0460917E0470917F0484179507A6072D
:10077000B707B0F28FEF9FEF089590E080E0089503
:1007800042E050E068E171E088E794E00C949A015F
:10079000CF93DF93FC0101900020E9F73197AF017F
:1007A000481B590BBC0188E794E00E949A01EC01B8
:1007B0000E94C0038C0F9D1FDF91CF910895CF93AE
:1007C000DF93FC01448155816081718188E794E069
:1007D0000E949A01EC010E94C0038C0F9D1FDF91C3
:1007E000CF910895FF920F931F93CF93DF93F82E2D
:1007F000062FC7E0D0E010E061E0802F0E941902D0
:100800008F2D0E94F0010C2E01C0880F0A94EAF788
:10081000182B60E0802F0E941902219768F7812F22
:10082000DF91CF911F910F91FF900895FF920F9349
:100830001F93CF93DF93809164040E94F00101978E
:10084000D1F310E0F89460916504809164040E94F3
:10085000F203D82F60916504809164040E94F20332
:10086000F82E60916504809164040E94F203082FC1
:1008700080916604803471F0C2E0803261F061E002
:10088000809165040E94190260E0809165040E94D5
:1008900019020DC0C3E061E0809165040E94190255
:1008A00060E0809165040E941902C150A1F778941C
:1008B000D7FD1FEF2FB7F8948091600490916104E9
:1008C000A0916204B09163042FBF80936F04909352
:1008D0007004A0937104B0937204602F7F2D8D2F4C
:1008E000912F0E943218DF91CF911F910F91FF90AD
:1008F0000895CF92DF92EF92FF92CF93DF93C82FAC
:10090000C12CD12C7601D0E00E9416049B01AC01D1
:10091000C701B6010E94BA196B017C01DF5FCD13DC
:10092000F3CF6C2F70E090E080E00E9432189B01C2
:10093000AC01C701B6010E94261ADF91CF91FF904A
:10094000EF90DF90CF9008958F929F92AF92BF92D9
:10095000CF92DF92EF92FF920F931F93CF93DF938B
:10096000CDB7DEB7EC970FB6F894DEBF0FBECDBFA4
:10097000182F80917704823009F478C0833069F1B0
:10098000813009F0D9C0123009F413E0FE0131962C
:100990005F01D12C7F010E941604D5016D937D93D8
:1009A0008D939D935D01D3941D11F5CF612FC701E8
:1009B0000E942801212F2695E22FF0E0CF01880F19
:1009C000991F880F991F10FF9CC0E80EF91EF701B0
:1009D000C080D180E280F3801CC00E9416046B01AD
:1009E0007C0101E00E941604A70196010E94B9193A
:1009F00020E030E040E05FE30E9491189B01AC01F1
:100A0000C701B6010E94BA196B017C010F5F101378
:100A1000E9CF6091670470916804809169049091B6
:100A20006A040E9432189B01AC01C701B6010E9402
:100A3000B91920916B0430916C0440916D04509170
:100A40006E040E949118EC960FB6F894DEBF0FBEAC
:100A5000CDBFDF91CF911F910F91FF90EF90DF906D
:100A6000CF90BF90AF909F908F900895123009F46F
:100A700013E0CE0101965C01D12C7C010E9416048A
:100A8000D5016D937D938D939D935D0181E08D0DD7
:100A9000181327C0612FC7010E942801812F90E001
:100AA00002969595879595958795082FD81A182FB2
:100AB000812C912C5401612F601BD116A0F0B4E061
:100AC0001B9FF0011124EE0DFF1D20813181428119
:100AD0005381C501B4010E94BA194B015C011F5F2B
:100AE000EACFD82ECBCF70E090E080E00E943218A1
:100AF0009B01AC01C501B4010E94261A6B017C0167
:100B000088CF3196EE0FFF1FEE0FFF1FEE0DFF1D7A
:100B1000E80EF91ED7012D913D914D915C916081B8
:100B20007181828193810E94BA1920E030E040E017
:100B30005FE30E949118E2CF812F0E947904DECFFB
:100B4000FC0180819181009711F00C94DD1360E02D
:100B500070E0CB0108950F931F93CF93DF938C0127
:100B6000EB01FC01808191810097E1F0688179813E
:100B700061157105A9F0428153812C813D81421795
:100B8000530770F00E94EC1C8C819D81F8019583C5
:100B900084831D821C82DF91CF911F910F91089554
:100BA0000E949D1B88819981F801918380838A81AD
:100BB0009B81938382838C819D8195838483198219
:100BC00018821B821A82E5CFCF93DF93EC018881D4
:100BD0009981009711F00E949D1B198218821D8235
:100BE0001C821B821A82DF91CF910895FC018081C3
:100BF0009181009711F00C949D1B08950F931F9302
:100C0000CF93DF93EC0188819981009759F02A8175
:100C10003B812617370730F081E0DF91CF911F919C
:100C20000F9108958B016F5F7F4F0E94261C0097E4
:100C300059F0998388831B830A832C813D81232B60
:100C400059F7FC011082E8CF80E0E7CFEF92FF92E6
:100C50000F931F93CF93DF936115710541F480E0EB
:100C6000DF91CF911F910F91FF90EF900895411563
:100C70005105B1F07B01EC010C811D81040F151FA2
:100C8000B8010E94FE05882351F3288139818C81A7
:100C90009D81B701820F931F0E94EC1C1D830C8362
:100CA00081E0DECFCF93DF93EC01FB0101900020C8
:100CB000E9F73197AF01461B570B0E9426068111B9
:100CC00003C0CE010E94E405CE01DF91CF910895CB
:100CD000CF93DF93EC01FB014481558160817181E9
:100CE0000E942606811103C0CE010E94E405CE01B8
:100CF000DF91CF910895EF92FF920F931F93CF93BF
:100D0000DF93EC017B018A01BA010E94FE0581118B
:100D10000BC0CE010E94E405CE01DF91CF911F915F
:100D20000F91FF90EF9008951D830C83B701888188
:100D300099810E94EC1CF0CFFB0101900020E9F7A3
:100D40003197AF01461B570B0C947B060F931F93F3
:100D5000CF93DF93CDB7DEB7A2970FB6F894DEBF7F
:100D60000FBECDBF8C01CB01BA01F80111821082F8
:100D700013821282158214822AE0AE014F5F5F4F08
:100D80000E941314BE016F5F7F4FC8010E949C0632
:100D9000A2960FB6F894DEBF0FBECDBFDF91CF9104
:100DA0001F910F910895EF92FF920F931F93CF938E
:100DB000DF93CDB7DEB7A1970FB6F894DEBF0FBEB5
:100DC000CDBF7C01CB01BA01F701118210821382E1
:100DD0001282158214828E010F5F1F4F22E044E0C1
:100DE0000E94BF13009789F0BC01C7010E949C06B6
:100DF000A1960FB6F894DEBF0FBECDBFDF91CF91A5
:100E00001F910F91FF90EF900895C7010E94E40594
:100E1000EFCF0F931F93CF93DF93CDB7DEB76297DA
:100E20000FB6F894DEBF0FBECDBF8C01CB01F80129
:100E30001182108213821282158214824AE0BE014E
:100E40006F5F7F4F0E940814BE016F5F7F4FC80124
:100E50000E949C0662960FB6F894DEBF0FBECDBF0F
:100E6000DF91CF911F910F910895FC0111821082A3
:100E70001382128215821482FB0101900020E9F78F
:100E80003197AF01461B570B0C947B060F931F93B2
:100E9000CF93DF9300D0CDB7DEB78C016AE171E06C
:100EA0000E9435070E947D0397FD0EC08A30910590
:100EB00059F089831A8241E050E0BE016F5F7F4F95
:100EC000C8010E942606EECFC8010F900F90DF9157
:100ED000CF911F910F910895FF920F931F93CF937E
:100EE000DF93EC018B01FB01F0800E945219F81690
:100EF00021F06F2DCE010E945A19F801F180219640
:100F0000CE010E945219F81621F06F2DCE010E94D9
:100F10005A19C801DF91CF911F910F91FF90089549
:100F20009F92AF92BF92CF92DF92EF92FF920F9378
:100F30001F93CF93DF935C017B018B01D0E0C0E076
:100F4000F80191908F016501CC0EDD1EC6010E9453
:100F50005219981621F0692DC6010E945A1921963E
:100F6000C430D10569F7C701DF91CF911F910F916F
:100F7000FF90EF90DF90CF90BF90AF909F9008953B
:100F8000CF92DF92EF92FF920F931F93CF93DF9355
:100F9000EB017B0124E0E20EF11C8B016C01C61A0F
:100FA000D70AC601800F911F0E945219F801819340
:100FB0008F01EE15FF05A9F7CE01DF91CF911F91AB
:100FC0000F91FF90EF90DF90CF9008950F931F93B4
:100FD000CF93DF938C01EB010E9452198883C801E3
:100FE00001960E9452198983CE01DF91CF911F9102
:100FF0000F910895CF92DF92EF92FF920F931F937C
:10100000CF93DF93CDB7DEB768970FB6F894DEBF06
:101010000FBECDBF6B017C01142F6AE171E0CE01E0
:1010200043960E94350788E794E00E945C0388E7B6
:1010300094E00E945C0388E794E00E945C0388E7E8
:1010400094E00E944403892BF9F485E00E94F001AA
:101050000197D1F4112399F30F7D0335E1F50E9437
:10106000820ACE0143960E94F60568960FB6F89460
:10107000DEBF0FBECDBFDF91CF911F910F91FF90CB
:10108000EF90DF90CF9008951111E6CFCE01019639
:101090000E944607BE016F5F7F4FCE0143960E94BC
:1010A000AB05CE0101960E94F60570E060E0CE012E
:1010B00043960E948801082F8B899C89009739F0FC
:1010C0000E94E1130E9432186B017C01C5CF60E0E1
:1010D00070E0CB01F7CF20E030E040E251E4C701FF
:1010E000B6010E94CE1A87FD36C020E030E04AEFFC
:1010F00053E4C701B6010E942B18181664F1C7010A
:10110000B6010E94981A70935304609352048BE1C5
:1011100091E0111124C0CE0107960E9409076EE1EB
:1011200071E0CE0101960E943507BE01695F7F4FD5
:10113000CE0101960E94680669E171E00E945206A4
:101140000E94DF03CE0101960E94F605CE010796AC
:101150000E94F60584CF112339F084E491E00E94C7
:10116000C8030E94EB087DCF64EF71E0CE010D96BD
:101170000E94090765E070E0CE0107960E9409070A
:1011800067E471E0CE0101960E943507BE01695FF8
:101190007F4FCE0101960E9468066DE671E00E94C5
:1011A0005206BE01635F7F4F0E9468060E94DF0304
:1011B000CE0101960E94F605CE0107960E94F60523
:1011C000CE010D960E94F60540E060E070E0CB0194
:1011D0000E94FA0746CFCF92DF92EF92FF920F93D1
:1011E0001F93CF93DF93CDB7DEB768970FB6F89410
:1011F000DEBF0FBECDBF11E085E00E94F001892B5C
:10120000B9F41093F80360E082E00E94190268EEDE
:1012100073E080E090E00E949D0261E082E00E9425
:10122000190268EE73E080E090E00E949D02E4CF36
:1012300060E082E00E94190285E00E94F0010197BF
:1012400081F48091F803813061F41092F80381E712
:1012500091E00E94C80360ED77E080E090E00E949A
:101260009D0282E00E94A40460930504709306042A
:10127000809307049093080482E00E94A404609382
:10128000010470930204809303049093040482E0A9
:101290000E94A4046B017C01C092FD03D092FE0366
:1012A000E092FF03F092000468EE73E080E090E0CB
:1012B0000E949D0220E030E0A901C701B6010E9412
:1012C000CE1A20E030E040E05FE387FD57C0C70161
:1012D000B6010E94BA190E94981AAB01BC01CE0156
:1012E00001960E94A6066AEB71E0CE0107960E9465
:1012F0003507BE016F5F7F4FCE0107960E946806DB
:101300000E94DF03CE0107960E94F605CE010196EA
:101310000E94F6056AE070E080E090E00E949D0285
:101320000E940A0F88E794E00E944403892BB9F0D9
:10133000CE0143960E94460770E060E0CE014396DE
:101340000E948801823509F4CBC0ECF4813419F194
:10135000873409F4A0C0CE0143960E94F605689632
:101360000FB6F894DEBF0FBECDBFDF91CF911F91B6
:101370000F91FF90EF90DF90CF900895C701B601D5
:101380000E94B919A8CF843509F4AEC08D3619F77B
:101390000E94820AE0CF1E861D86188A1F861A8A3E
:1013A000198A6B897C896115710531F04F89588DD7
:1013B000CE010D960E947B0618861F821A8619861A
:1013C0001C861B866D857E856115710531F0498906
:1013D0005A89CE0107960E947B0661E070E0CE013B
:1013E00007960E948801F82E6AE171E0CE0101960D
:1013F0000E9435070B851C8503301105E0F009308C
:10140000110510F009E010E0EF81F885E00FF11F01
:10141000E08010826F8178856E5F7F4FCE010196EC
:101420006115710529F10E949C068F819885080F2E
:10143000191FF801E082F2E6FF16E9F083E6F816DC
:1014400011F1E1E6FE1207C0CE0101960E94A0054F
:1014500041E00E94E50DCE0101960E94F605CE0105
:1014600007960E94F605CE010D960E94F60573CFF1
:101470000E94E405DACFCE0101960E94A00541E06A
:101480000E94FA07E8CFCE0101960E94A00541E034
:101490000E94FD0CE0CF6CE574E090E080E00E94DB
:1014A000900768E574E084E090E00E94900764E5AE
:1014B00074E088E090E00E94900762E574E08CE0C0
:1014C00090E00E946C078BE191E00E94C80368EEF7
:1014D00073E080E090E00E949D020E94EB083BCF09
:1014E00081E00E94020C37CF8AE00E9479040E94BA
:1014F000981A6093670470936804809369049093CA
:101500006A0429CFCF93DF93CDB7DEB762970FB6CA
:10151000F894DEBF0FBECDBF8CEB91E00E94C803F4
:1015200088E794E00E945C0388E794E00E945C03F3
:1015300088E794E00E944403892BD1F388E794E084
:101540000E945C03833609F4E7C04CF4813609F449
:1015500053C0823609F486C08AE393E03FC18237E4
:1015600009F445C1833709F446C18736A9F785EEEA
:1015700092E00E94C80388E794E00E945C0360ED5B
:1015800077E080E090E00E949D0288E794E00E946E
:101590005C0388E794E00E944403892BD1F388E739
:1015A00094E00E945C038E3609F416C1833709F07B
:1015B0001AC16CE574E090E080E00E94900768E555
:1015C00074E084E090E00E94900764E574E088E0B5
:1015D00090E00E94900762E574E08CE090E00E9449
:1015E0006C0783E193E00E94C80368EE73E080E03B
:1015F00090E00E949D022DC04091580450915904E2
:1016000060915A0470915B04CE0107960E94D30644
:101610006AE572E0CE0101960E943507BE01695F5E
:101620007F4FCE0101960E9468060E94DF03CE0123
:1016300001960E94F605CE0107960E94F6058AE6FD
:1016400092E00E94C80340E060E070E0CB010E949D
:10165000E50D62960FB6F894DEBF0FBECDBFDF91E9
:10166000CF9108956091520470915304CE01079672
:101670000E94090768E972E0CE0101960E943507D1
:10168000BE01695F7F4FCE0101960E9468060E94ED
:10169000DF03CE0101960E94F605CE0107960E9457
:1016A000F60564EF71E0CE010D960E94090765E032
:1016B00070E0CE0107960E94090768E571E0CE014F
:1016C00001960E943507BE01695F7F4FCE010196EA
:1016D0000E9468066DE671E00E945206BE01635FDB
:1016E0007F4F0E94680665EB72E00E9452060E94DE
:1016F000DF03CE0101960E94F605CE0107960E94F7
:10170000F605CE010D960E94F60540E060E070E01F
:10171000CB010E94FA079DCF40915C0450915D047B
:1017200060915E0470915F04CE0107960E94D3061B
:1017300067EC72E0CE0101960E943507BE01695F39
:101740007F4FCE0101960E9468060E94DF03CE0102
:1017500001960E94F605CE0107960E94F6056AE002
:1017600070E0CE010D960E9409074DEC5CEC6CEC2C
:101770007DE3CE0107960E94D30668E571E0CE01B5
:1017800001960E943507BE01695F7F4FCE01019629
:101790000E9468066DE671E00E945206BE01635F1A
:1017A0007F4F0E94680665EB72E00E9452060E941D
:1017B000DF03CE0101960E94F605CE0107960E9436
:1017C000F605CE010D960E94F60540E060E070E05F
:1017D000CB010E94FD0C3DCF85E293E00E94C8033F
:1017E0000E94820A36CF8AE393E00E94C80380E019
:1017F0000E94020C2ECF8DE493E00E94C8030E9449
:10180000EB0827CFCF92DF92EF92FF92CF93DF9337
:1018100000D000D0CDB7DEB7811194C080E693E050
:101820000E94C80388E794E00E945C0360ED77E0C3
:1018300080E090E00E949D0288E794E00E945C03B3
:1018400088E794E00E944403892BD1F388E794E071
:101850000E945C038E3609F468C0833709F06AC0C1
:10186000C12CD12C90E8E92E9FE3F92EC982DA82AF
:10187000EB82FC82BE016F5F7F4F90E080E00E94B0
:10188000900780E090E0AAE7B4E489839A83AB8371
:10189000BC83BE016F5F7F4F84E090E00E949007A1
:1018A000C982DA82EB82FC82BE016F5F7F4F88E0E3
:1018B00090E00E94900782E390E09A838983BE01C2
:1018C0006F5F7F4F8CE090E00E946C076CE574E0E6
:1018D00090E080E00E94C00768E574E084E090E05A
:1018E0000E94C00764E574E088E090E00E94C007B1
:1018F00062E574E08CE090E00E94E6078EE893E0F9
:101900000E94C80368EE73E080E090E00E949D02B0
:101910000E94820A0F900F900F900F90DF91CF914D
:10192000FF90EF90DF90CF90089585EA93E00E94BA
:10193000C803EECF8AE393E00E94C80380E00E94D0
:10194000020CE8CFC12CD12C80E8E82E8FE3F82ED2
:10195000C982DA82EB82FC82BE016F5F7F4F90E02A
:1019600080E00E94900780E090E0AAE7B4E48983D9
:101970009A83AB83BC83BE016F5F7F4F84E090E0AE
:101980000E949007C982DA82EB82FC82BE016F5FFF
:101990007F4F88E090E00E94900782E390E09A8376
:1019A0008983BE016F5F7F4F8CE090E00E946C07DF
:1019B0006CE574E090E080E00E94C00768E574E0A8
:1019C00084E090E00E94C00764E574E088E090E065
:1019D0000E94C00762E574E08CE090E00E94E60798
:1019E0008BE191E00E94C80368EE73E080E090E034
:1019F0000E949D020E94EB088DCFCF92DF92EF9262
:101A0000FF920F931F93CF93DF93CDB7DEB7689705
:101A10000FB6F894DEBF0FBECDBF6B017C01142F53
:101A20006AE171E0CE0143960E94350788E794E0B1
:101A30000E945C0388E794E00E945C0388E794E0DE
:101A40000E945C0388E794E00E944403892BD1F450
:101A50001123C1F30F7D0335A1F50E94820ACE0147
:101A600043960E94F60568960FB6F894DEBF0FBE47
:101A7000CDBFDF91CF911F910F91FF90EF90DF903D
:101A8000CF9008951111E6CFCE0101960E9446072E
:101A9000BE016F5F7F4FCE0143960E94AB05CE0122
:101AA00001960E94F60570E060E0CE0143960E9428
:101AB0008801082FCE0143960E94A0056B017C018E
:101AC000C9CF2DEC3CEC4CEC5DE3C701B6010E94A4
:101AD000CE1A87FD38C020E030E040EA50E4C7016C
:101AE000B6010E942B18181674F1C0925C04D092B3
:101AF0005D04E0925E04F0925F048BE191E01111CD
:101B000026C0B701A601CE0107960E94D3066FEB4F
:101B100073E0CE0101960E943507BE01695F7F4FD9
:101B2000CE0101960E94680669E171E00E945206AA
:101B30000E94DF03CE0101960E94F605CE010796B2
:101B40000E94F6058ACF112339F084E491E00E94C7
:101B5000C8030E94EB0883CF6AE070E0CE010D96C7
:101B60000E9409074DEC5CEC6CEC7DE3CE0107961E
:101B70000E94D30667E471E0CE0101960E9435070A
:101B8000BE01695F7F4FCE0101960E9468066DE637
:101B900071E00E945206BE01635F7F4F0E9468069B
:101BA0000E94DF03CE0101960E94F605CE01079642
:101BB0000E94F605CE010D960E94F60540E060E019
:101BC00070E0CB010E94FD0C4ACFCF92DF92EF92E2
:101BD000FF920F931F93CF93DF93CDB7DEB7689734
:101BE0000FB6F894DEBF0FBECDBF6B017C01142F82
:101BF0006AE171E0CE0143960E94350788E794E0E0
:101C00000E945C0388E794E00E945C0388E794E00C
:101C10000E945C0388E794E00E944403892BC9F486
:101C20001123C1F30337A1F50E94820ACE01439626
:101C30000E94F60568960FB6F894DEBF0FBECDBFC2
:101C4000DF91CF911F910F91FF90EF90DF90CF9098
:101C500008951111E7CFCE0101960E944607BE01FB
:101C60006F5F7F4FCE0143960E94AB05CE01019678
:101C70000E94F60570E060E0CE0143960E94880164
:101C8000082FCE0143960E94A0056B017C01CACFAC
:101C900020E030E040E85FE3C701B6010E94CE1AC1
:101CA00087FD78C020E030E44CE955E4C701B60177
:101CB0000E942B1818160CF46DC0C0925404D092D8
:101CC0005504E0925604F092570480E090E0A0E8BA
:101CD000BFE380936B0490936C04A0936D04B09366
:101CE0006E046CE271E080E090E00E949D028AE068
:101CF0000E94A4042091540430915504409156044C
:101D0000509157040E94261A6B017C01AC019B0183
:101D100060E070E080E89FE30E94261A60936B0405
:101D200070936C0480936D0490936E04C092580479
:101D3000D0925904E0925A04F0925B048BE191E056
:101D400011112CC0B701A601CE0107960E94D3063F
:101D50006BED73E0CE0101960E943507BE01695F0D
:101D60007F4FCE0101960E94680669E171E00E94F2
:101D700052060E94DF03CE0101960E94F605CE01B5
:101D800007960E94F6056CED75E080E090E00E94F9
:101D90009D024ACF112339F084E491E00E94C803E8
:101DA0000E94EB0843CF68E873E1CE010D960E94D4
:101DB000090761E070E0CE0107960E94090767E419
:101DC00071E0CE0101960E943507BE01695F7F4F29
:101DD000CE0101960E9468066DE671E00E945206EF
:101DE000BE01635F7F4F0E9468060E94DF03CE0141
:101DF00001960E94F605CE0107960E94F605CE01D7
:101E00000D960E94F60540E060E070E0CB010E9474
:101E1000E50D0CCF4F925F926F927F928F929F92BF
:101E2000AF92BF92CF92DF92EF92FF92CF93DF9368
:101E3000CDB7DEB72C970FB6F894DEBF0FBECDBF7F
:101E4000C0900104D0900204E0900304F0900404D8
:101E5000A701960160910504709106048091070422
:101E6000909108040E94B9194B015C0120E030E018
:101E7000A9010E94CE1A181624F0B7FAB094B7F848
:101E8000B09440905C0450905D0460905E0470904B
:101E90005F04A5019401C301B2010E94CE1A87FD1F
:101EA0002DC1A70196016091FD037091FE03809101
:101EB000FF03909100040E94B9194B015C0120E0DE
:101EC00030E0A9010E94CE1A181624F0B7FAB09497
:101ED000B7F8B094A5019401C301B2010E94CE1AD3
:101EE00087FD0CC120E030E0A901C701B6010E94C6
:101EF000CE1A46015701181624F0B7FAB094B7F875
:101F0000B0946091520470915304072E000C880B1A
:101F1000990B0E943218A50194010E942B1887FF8B
:101F2000EDC0C092F903D092FA03E092FB03F09265
:101F3000FC036091520470915304072E000C880B2F
:101F4000990B0E94321820910104309102044091B3
:101F50000304509104040E942B1887FFCFC0C09047
:101F6000F903D090FA03E090FB03F090FC0320E02B
:101F700030E0A901C701B6010E94CE1A20E030E08E
:101F800040E05FE387FD47C0C701B6010E94BA1970
:101F90000E94981AAB01BC01CE0107960E94A606CA
:101FA00066EF73E0CE0101960E943507BE01695FBE
:101FB0007F4FCE0101960E9468060E94DF03CE018A
:101FC00001960E94F605CE0107960E94F6056AE08A
:101FD00070E080E090E00E949D0285E00E94A404F1
:101FE00060930104709302048093030490930404AB
:101FF00088E794E00E944403892B09F49ACF88E78C
:1020000094E00E945C03843559F08D3609F091CF3D
:102010000E94820A8ECFC701B6010E94B919B8CFBB
:1020200088E794E00E945C0382E00E94A40460932D
:10203000050470930604809307049093080482E0DB
:102040000E94A4046093010470930204809303042B
:102050009093040482E00E94A4046B017C01C0926E
:10206000FD03D092FE03E092FF03F092000420E013
:1020700030E0A9010E94CE1A20E030E040E05FE3AA
:1020800087FD34C0C701B6010E94BA190E94981A90
:10209000AB01BC01CE0101960E94A6066AEB71E07D
:1020A000CE0107960E943507BE016F5F7F4FCE01BC
:1020B00007960E9468060E94DF03CE0107960E94E1
:1020C000F605CE0101960E94F6056AE070E080E018
:1020D00090E00E949D0288E794E00E944403892BCF
:1020E00051F088E794E00E945C03F5CFC701B60188
:1020F0000E94B919CBCF0E940A0F1BCF2C960FB6A6
:10210000F894DEBF0FBECDBFDF91CF91FF90EF906F
:10211000DF90CF90BF90AF909F908F907F906F9007
:102120005F904F9008951F920F920FB60F92112457
:102130002F933F938F939F93AF93BF9380916004AE
:1021400090916104A0916204B091630430914904BC
:1021500023E0230F2D3758F50196A11DB11D2093C3
:1021600049048093600490936104A0936204B09347
:10217000630480914A0490914B04A0914C04B09167
:102180004D040196A11DB11D80934A0490934B0408
:10219000A0934C04B0934D04BF91AF919F918F9148
:1021A0003F912F910F900FBE0F901F90189526E82A
:1021B000230F0296A11DB11DD2CF1F920F920FB611
:1021C0000F9211242F933F934F935F936F937F93BD
:1021D0008F939F93AF93BF93EF93FF93E09150043E
:1021E000F0915104309749F0A685B7858585968D85
:1021F00091FF14C09C918923A1F4FF91EF91BF91AD
:10220000AF919F918F917F916F915F914F913F918E
:102210002F910F900FBE0F901F9018959C918923BE
:1022200061F7A389B4899C918589809589238C93D2
:10223000868997890197F1F7608D718DA685B7859D
:10224000558538E020E0CB010197F1F7822F90E02F
:1022500095958795282F4C91452309F0206831509A
:1022600091F7868D81FD209580914F0490E0019635
:102270008F73992730914E04381799F0A0914F042D
:10228000B0E0A75FBB4F2C9380934F04828D938D5A
:102290000197F1F7A389B4898C919589892B8C9347
:1022A000ACCF868D8160868FF1CFCF93DF9300D046
:1022B00000D000D0CDB7DEB7789484B5826084BDFD
:1022C00084B5816084BD85B5826085BD85B581603A
:1022D00085BD80916E00816080936E0010928100B8
:1022E0008091810082608093810080918100816073
:1022F0008093810080918000816080938000809134
:10230000B10084608093B1008091B00081608093BF
:10231000B00080917A00846080937A0080917A0086
:10232000826080937A0080917A00816080937A0045
:1023300080917A00806880937A001092C100109298
:1023400093041092920410929104109290041092AF
:102350008F0410928E048DE991E090939504809300
:10236000940490918404963108F047C02DEB30E03E
:1023700030938F0420938E042BE931E03093910445
:10238000209390042CE231E0309393042093920444
:102390002091680084E0983048F031E09E3008F4E5
:1023A00030E081E001C0880F3A95EAF7822B8093F4
:1023B00068002DE630E0983050F02BE630E09E309B
:1023C00030F02CE630E0963110F030E020E0309331
:1023D0008C0420938B04292F30E0983008F010C132
:1023E00081E001C0880F9A95EAF780938D0480916F
:1023F0009404909195040197F1F780919204909143
:102400009304892B49F1E0915004F091510424E0A8
:10241000E837F20709F1309739F0A389B4899C9124
:102420008589809589238C93809196048E7F8093F3
:10243000960410924F0410924E0488E794E0909313
:10244000510480935004E0918B04F0918C048081BE
:1024500090918D04892B80838EE0809364048FE0BB
:102460008093650460E08EE00E94470261E0809105
:1024700065040E94470260E0809165040E94190291
:1024800010926704109268041092690410926A0412
:10249000C12CD12C80E8E82E8FE3F82EC0926B047B
:1024A000D0926C04E0926D04F0926E0480E8809308
:1024B000660410926F0410927004109271041092CE
:1024C00072041092770460E085E00E94470261E0A8
:1024D00082E00E94470260E082E00E941902BE0191
:1024E0006B5F7F4F8EE090E00E94E6078D819E81BA
:1024F0000196D9F5C982DA82EB82FC82BE016F5F58
:102500007F4F90E080E00E94900780E090E0AAE793
:10251000B4E489839A83AB83BC83BE016F5F7F4F32
:1025200084E090E00E949007C982DA82EB82FC820C
:10253000BE016F5F7F4F88E090E00E94900782E3CA
:1025400090E09A838983BE016F5F7F4F8CE090E0BB
:102550000E946C0781E090E09A838983BE016F5FDF
:102560007F4F8EE090E00E946C076CE574E090E095
:1025700080E00E94C00768E574E084E090E00E947B
:10258000C00764E574E088E090E00E94C00762E55F
:1025900074E08CE090E00E94E607209158043091AE
:1025A000590440915A0450915B0460E070E080E867
:1025B0009FE30E94261A60936B0470936C048093CF
:1025C0006D0490936E0464E670E080E090E00E94F9
:1025D0009D028AE00E9479040E94981A6093670421
:1025E000709368048093690490936A0400E010E09B
:1025F0000E94EB0801151105D9F30E940000F8CFE5
:102600009E3040F42850310981E001C0880F2A959E
:10261000EAF7EBCE2E503109F7CF80E880936604BD
:1026200010926704109268041092690410926A0470
:1026300080E090E0A0E8BFE380936B0490936C048B
:10264000A0936D04B0936E0410926F041092700406
:102650001092710410927204109273041092740418
:1026600010927504109276041092770410927B04F5
:1026700010927A0488EE93E0A0E0B0E080937C04AE
:1026800090937D04A0937E04B0937F048AE091E050
:10269000909379048093780410928F0410928E04A2
:1026A000109291041092900410929304109292044C
:1026B0001092950410929404609196046E7F6D7F41
:1026C000609396046695617081E0682784E00E94BB
:1026D000190261E084E00E944702E3EDF1E0E49139
:1026E000E0938804EFEBF1E0E491F0E0EE0FFF1FE0
:1026F000E955FE4F8591949190938A0480938904C3
:1027000060E083E00E9447028091960481FD04C04E
:1027100061E083E00E94190283E080938404E2ED8B
:10272000F1E0E491E0938504EEEBF1E0E491F0E078
:10273000EE0FFF1FEF54FE4F859194919093870405
:102740008093860408958AE091E0909379048093C1
:10275000780480915004909151048857944071F40A
:10276000E0918B04F0918C04908180918D04809590
:102770008923808310925104109250040895EF929F
:102780000F931F93CF93DF93E80134E047FD34E1CB
:10279000042E000C550B57FF03C05195419551096C
:1027A000E32E022F242FAE010E947314CE01DF917D
:1027B000CF911F910F91EF900895662777270C9482
:1027C000D2151F93FC0199278827BC01E894119129
:1027D0001032E9F3193010F01E30C8F31B3251F0FB
:1027E0001D3249F4689406C00E942214610F711DC5
:1027F000811D911D119110531A30B0F33EF4909544
:102800008095709561957F4F8F4F9F4F1F910895D1
:10281000BB274A3031F4992322F4BDE2909581958B
:102820009F4F0C945A14BB272A3051F4992342F439
:10283000BDE290958095709561957F4F8F4F9F4F2A
:102840000C943814592F482F372F262F660F771FD7
:10285000881F991F660F771F881F991F620F731FAC
:10286000841F951F660F771F881F991F0895BB2728
:10287000FA01A62F6217710581059105330B30FB14
:1028800066F0AA27660F771F881F991FAA1FA21735
:1028900010F0A21B63953850A9F7A05DAA3308F089
:1028A000A95DA19336F7B111B1931082CA010C94BE
:1028B0001B18BB27FB015527AA27880F991FAA1FA2
:1028C000A41710F0A41B83955051B9F7A05DAA334B
:1028D00008F0A95DA193009779F7B111B193119216
:1028E000CB010C941B18A9E0B0E0E9E7F4E10C94EB
:1028F00079196A01F22EB02E102FFBE3AF2EA0162D
:1029000008F41BE31F5F012F27E0AE014F5F5F4F0D
:102910000E942217BC018981982F9970913009F487
:102920003FC09BE2E1FC04C09E2D9170E0FC3AC0E8
:102930005E2D5071E82FE87083FF46C084E091114E
:1029400001C083E0EF2DE81B8F1508F0E0E0D60111
:102950008E2F20E2552351F1992329F0D6019C9323
:10296000C60101966C0196012D5F3F4FE2FE24C027
:102970008EE4D6018C9391E411969C931197129654
:102980008C93D9018E2F90E281111BC0E20FF32F9F
:10299000F11D10828EEF9FEF2996ECE00C949519B3
:1029A0009DE2C6CF90E2C4CF2D9381508111FCCF20
:1029B000CE0ED11CE0E0D0CF8EE6D6018C9391E60E
:1029C000DBCF9D938150E0CF482F447082FF3DC004
:1029D00084E0911101C083E08F1510F4EF2DE81B06
:1029E000D6018E2F20E2552309F1992329F0D60133
:1029F0009C93C60101966C0196012D5F3F4FE2FE4C
:102A00001BC089E4D6018C938EE411968C931197A8
:102A100086E412968C93D9018E2F90E2882309F4D4
:102A2000B5CF9D938150FACF2D9381508111FCCF6A
:102A3000CE0ED11CE0E0D9CF89E6D6018C938EE68C
:102A400011968C93119786E6E4CF9B0177FF02C025
:102A500030E020E0A1E0B0E0911102C0B0E0A0E0E1
:102A6000F9013196AE0FBF1F8B2C912CBB2009F4BE
:102A700061C05401EFEFAE1ABE0AAA0DBB1DFA16D3
:102A80001B0619F014F04F2D4A1B511188C0E3FCAE
:102A900059C07601A42FB0E2A1114FC0C40ED11CC1
:102AA000992309F45BC040E0D6011196F6019083AA
:102AB0006D01552309F448C0012F060F9A81582F44
:102AC000507184FF03C0913309F4015010160CF0CB
:102AD00047C0093008F008E0EEE2FE2E5B01A01AC4
:102AE000B10885019194819491082F3F320729F410
:102AF000D601FC92F60131966F016217730794F1CB
:102B0000021713077CF5DB01A21BB30BAA24A394C5
:102B1000B12CAC0EBD1EAA0DBB1D11968C9121507F
:102B20003109D601119628153905F4F0F601808394
:102B30006D01DBCFB12CA12CA0CFF701B1937F01A8
:102B4000A150AACF9111B0CFD601942F50E302C06B
:102B50005D9391509111FCCFC40ED11C40E0ACCFDD
:102B600001E0BACF80E3DBCF6217730731F496330D
:102B700088F4953311F4552369F0F6018083FD0143
:102B8000842F90E2811108C0A40FB11D1C9290E027
:102B900080E002CF81E3F1CF91938150F3CF911187
:102BA00083CF8ACFB0E0A0E0E8EDF5E10C9479198D
:102BB0005C017B016115710519F0DB018D939C931C
:102BC00085010F5F1F4FF501D0818D2F90E00E948E
:102BD000FA176C01892BB9F5DD32B9F50F5F1F4F7C
:102BE000D5011196DC91C1E05801F1E0AF1AB108AE
:102BF00043E050E060E770E0C5010E940318892BB4
:102C000069F5680182E0C80ED11C45E050E06BE632
:102C100070E0C6010E940318892B21F4680197E037
:102C2000C90ED11CE114F10419F0D701CD92DC9248
:102C300060E070E080E89FEFC111FFC060E070E0ED
:102C400080E89FE7FAC05801BBCFDB3229F4850149
:102C50000E5F1F4FF501D181C0E0C6CF43E050E0C9
:102C600068E670E0C5010E940318892BE9F0F801BD
:102C700010E000E020E030E0A9015F01B0ED8B2E14
:102C80008D0E89E08815C8F19C2E689491F88C2FE0
:102C90008870C2FF16C0811102C00F5F1F4F3196AE
:102CA000D501DC91C92DE9CFE114F10429F00E5FC3
:102CB0001F4FF7011183008360E070E080EC9FE715
:102CC000BCC0882311F001501109A5E0B0E00E94BA
:102CD00068199B01AC01220F331F441F551F280D9B
:102CE000311D411D511D283999E93907490799E1DD
:102CF0005907A8F2C6609C2ED2CFAEEF8A1206C04A
:102D0000C3FD3CC09C2E689493F8C9CFDF7DD534B9
:102D1000A9F580818D3239F4C061DF01129681817D
:102D200062E070E006C0DF018B32C1F3119661E012
:102D300070E080535D01A61AB70A8A30F8F4E0E823
:102D4000CE16ECE0DE065CF4B601660F771F660F68
:102D5000771FC60ED71ECC0CDD1CC80ED11C5D0122
:102D6000FFEFAF1ABF0A8C9180538A30A8F1C4FFDD
:102D700003C0D194C194D1080C0D1D1DC1FF09C021
:102D8000E114F10431F081E0A81AB108D701AD9245
:102D9000BC92CA01B9010E943018C370C33009F453
:102DA00090584B015C0120E030E0A9010E942B18F3
:102DB000882309F440C0CFE9D0E017FF05C0119582
:102DC00001951109C7E8D0E06E01B8E1CB1AD1082E
:102DD00080E2E82EF12C0FC0D501B1CFFE01259184
:102DE0003591459154910E191F09C501B4010E94F6
:102DF00091184B015C01D501C4010E151F0574F734
:102E00002497F594E794CC16DD06A9F78A2F880F4E
:102E10008B2F881F8F3F49F020E030E0A901C501CA
:102E2000B4010E942B18811106C082E290E09093B9
:102E3000980480939704C501B401CDB7DEB7ECE0E8
:102E40000C949519283008F027E03327DA01990F00
:102E5000311D87FD916000966105710539F432607E
:102E60002E5F3D9330E32A95E1F708959F3F30F0C0
:102E700080387105610509F03C5F3C5F3D939130FE
:102E800008F08068911DDF93CF931F930F93FF92FB
:102E9000EF92192F987F9695E92F96959695E90FC1
:102EA000FF27E350FF4F99273327EE24FF24A70184
:102EB000E70105900894079428F4360FE71EF81EE2
:102EC000491F511D660F771F881F991F0694A1F790
:102ED0000590079428F4E70EF81E491F561FC11DE0
:102EE000770F881F991F661F0694A1F70590079416
:102EF00028F4F80E491F561FC71FD11D880F991FB0
:102F0000661F771F0694A1F70590079420F4490FD8
:102F1000561FC71FD81F990F661F771F881F06945B
:102F2000A9F784911095177041F0D695C7955795DC
:102F30004795F794E7941A95C1F7E3EAF0E06894AF
:102F40001590159135916591959105907FE2739556
:102F5000E118F10A430B560BC90BD009C0F7E10C7D
:102F6000F11E431F561FC91FD01D7EF4703311F48C
:102F70008A95E6CFE894015030F0080F0AF4002754
:102F8000021708F4202F2395022F7A3328F079E3D3
:102F90007D932A95E9F710C07D932A9589F60694CA
:102FA00097956795379517951794E118F10A430B94
:102FB000560BC90BD00998F023957E9173957A33FF
:102FC00008F070E37C932013B8F77E9170617D93D5
:102FD00030F0839571E37D9370E32A95E1F7112436
:102FE000EF90FF900F911F91CF91DF91992787FD6F
:102FF0009095089591110C94FE18803219F0895023
:103000008550C8F70895FB01DC014150504088F01D
:103010008D9181341CF08B350CF4805E65916134A8
:103020001CF06B350CF4605E861B611171F3990B1B
:103030000895881BFCCFDC01FC01672F7191772379
:10304000E1F7329704C07C916D9370836291AE1763
:10305000BF07C8F308950E946D1808F481E0089531
:10306000E89409C097FB3EF4909580957095619522
:103070007F4F8F4F9F4F9923A9F0F92F96E9BB27D8
:103080009395F695879577956795B795F111F8CF54
:10309000FAF4BB0F11F460FF1BC06F5F7F4F8F4FBF
:1030A0009F4F16C0882311F096E911C0772321F0B5
:1030B0009EE8872F762F05C0662371F096E8862F4D
:1030C00070E060E02AF09A95660F771F881FDAF7A4
:1030D000880F9695879597F90895990F0008550FD1
:1030E000AA0BE0E8FEEF16161706E807F907C0F08E
:1030F00012161306E407F50798F0621B730B840B96
:10310000950B39F40A2661F0232B242B252B21F46F
:1031100008950A2609F4A140A6958FEF811D811D0F
:1031200008950E94A4180C9418190E940A1938F0E6
:103130000E94111920F0952311F00C9401190C94A0
:10314000071911240C944C190E94291970F3959FAA
:10315000C1F3950F50E0551F629FF001729FBB278E
:10316000F00DB11D639FAA27F00DB11DAA1F649F2A
:103170006627B00DA11D661F829F2227B00DA11DDD
:10318000621F739FB00DA11D621F839FA00D611D63
:10319000221F749F3327A00D611D231F849F600D84
:1031A000211D822F762F6A2F11249F5750409AF0AD
:1031B000F1F088234AF0EE0FFF1FBB1F661F771F39
:1031C000881F91505040A9F79E3F510580F00C9404
:1031D00001190C944C195F3FE4F3983ED4F38695A3
:1031E00077956795B795F795E7959F5FC1F7FE2BA4
:1031F000880F911D9695879597F9089599278827A7
:10320000089597F99F6780E870E060E008959FEF68
:1032100080EC089500240A9416161706180609066D
:10322000089500240A94121613061406050608953C
:10323000092E0394000C11F4882352F0BB0F40F4C4
:10324000BF2B11F460FF04C06F5F7F4F8F4F9F4F04
:10325000089557FD9058440F551F59F05F3F71F086
:103260004795880F97FB991F61F09F3F79F08795ED
:103270000895121613061406551FF2CF4695F1DF76
:1032800008C0161617061806991FF1CF8695710506
:10329000610508940895E894BB2766277727CB013A
:1032A00097F90895F999FECF92BD81BDF89A9927B3
:1032B00080B50895262FF999FECF1FBA92BD81BD22
:1032C00020BD0FB6F894FA9AF99A0FBE01960895A8
:1032D0000E94AA19A59F900DB49F900DA49F800DE8
:1032E000911D112408952F923F924F925F926F92F9
:1032F0007F928F929F92AF92BF92CF92DF92EF9286
:10330000FF920F931F93CF93DF93CDB7DEB7CA1B06
:10331000DB0B0FB6F894DEBF0FBECDBF09942A8831
:10332000398848885F846E847D848C849B84AA84D9
:10333000B984C884DF80EE80FD800C811B81AA8166
:10334000B981CE0FD11D0FB6F894DEBF0FBECDBF31
:10335000ED010895A29FB001B39FC001A39F700D1E
:10336000811D1124911DB29F700D811D1124911D8D
:1033700008955058BB27AA270E94D1190C941819F8
:103380000E940A1938F00E94111920F039F49F3F69
:1033900019F426F40C9407190EF4E095E7FB0C944D
:1033A0000119E92F0E94291958F3BA176207730708
:1033B0008407950720F079F4A6F50C944B190EF4C8
:1033C000E0950B2EBA2FA02D0B01B90190010C0135
:1033D000CA01A0011124FF27591B99F0593F50F44D
:1033E000503E68F11A16F040A22F232F342F4427A5
:1033F000585FF3CF469537952795A795F04053959D
:10340000C9F77EF41F16BA0B620B730B840BBAF06C
:103410009150A1F0FF0FBB1F661F771F881FC2F7D7
:103420000EC0BA0F621F731F841F48F487957795EB
:103430006795B795F7959E3F08F0B0CF9395880FA5
:1034400008F09927EE0F9795879508950E943A1AEC
:103450000C9418190E94111958F00E940A1940F092
:1034600029F45F3F29F00C94011951110C944C1967
:103470000C9407190E94291968F39923B1F3552375
:1034800091F3951B550BBB27AA2762177307840777
:1034900038F09F5F5F4F220F331F441FAA1FA9F30D
:1034A00035D00E2E3AF0E0E832D091505040E695FB
:1034B000001CCAF72BD0FE2F29D0660F771F881F5C
:1034C000BB1F261737074807AB07B0E809F0BB0B4F
:1034D000802DBF01FF2793585F4F3AF09E3F510563
:1034E00078F00C9401190C944C195F3FE4F3983E6A
:1034F000D4F3869577956795B795F7959F5FC9F74C
:10350000880F911D9695879597F90895E1E0660FCC
:10351000771F881FBB1F621773078407BA0720F045
:10352000621B730B840BBA0BEE1F88F7E0950895AE
:103530000E949F1A6894B1110C944C1908950E942E
:10354000311988F09F5798F0B92F9927B751B0F0EB
:10355000E1F0660F771F881F991F1AF0BA95C9F717
:1035600014C0B13091F00E944B19B1E008950C9451
:103570004B19672F782F8827B85F39F0B93FCCF304
:10358000869577956795B395D9F73EF49095809594
:10359000709561957F4F8F4F9F4F08950E946D18D2
:1035A00008F48FEF089597FB072E16F4009407D0C8
:1035B00077FD09D00E94E71A07FC05D03EF49095EC
:1035C00081959F4F0895709561957F4F0895AA1B2F
:1035D000BB1B51E107C0AA1FBB1FA617B70710F0FE
:1035E000A61BB70B881F991F5A95A9F78095909530
:1035F000BC01CD010895EE0FFF1F0590F491E02D61
:1036000009940F931F93CF93DF938230910510F4A9
:1036100082E090E0E0919B04F0919C0430E020E097
:10362000B0E0A0E0309799F42115310509F44AC0C3
:10363000281B390B24303105D8F58A819B8161150F
:10364000710589F1FB0193838283FE0111C04081E2
:1036500051810281138148175907E0F04817590733
:1036600099F4109761F012960C93129713961C938D
:103670003296CF01DF91CF911F910F910895009362
:103680009B0410939C04F4CF2115310551F042178F
:10369000530738F0A901DB019A01BD01DF01F801F0
:1036A000C1CFEF01F9CF90939C0480939B04CDCFC1
:1036B000FE01E20FF31F8193919322503109398368
:1036C0002883D7CF2091990430919A04232B41F479
:1036D000209102013091030130939A0420939904C0
:1036E00020910001309101012115310541F42DB7E0
:1036F0003EB74091040150910501241B350BE09128
:103700009904F0919A04E217F307A0F42E1B3F0BE3
:103710002817390778F0AC014E5F5F4F2417350743
:1037200048F04E0F5F1F50939A0440939904819381
:1037300091939FCFF0E0E0E09CCFCF93DF93009791
:10374000E9F0FC01329713821282A0919B04B091A0
:103750009C04ED0130E020E01097A1F4208131813C
:10376000820F931F2091990430919A0428173907EA
:1037700009F061C0F0939A04E0939904DF91CF912E
:103780000895EA01CE17DF07E8F54A815B819E01C3
:1037900041155105B1F7E901FB83EA83499159913C
:1037A000C40FD51FEC17FD0761F48081918102964B
:1037B000840F951FE90199838883828193819B837C
:1037C0008A83F0E0E0E012968D919C911397009728
:1037D000B9F52D913C911197CD010296820F931F5F
:1037E0002091990430919A042817390739F63097B7
:1037F00051F510929C0410929B04B0939A04A093EC
:103800009904BCCFD383C28340815181840F951F1B
:10381000C817D90761F44E5F5F4F88819981480FBF
:10382000591F518340838A819B8193838283211511
:10383000310509F0B0CFF0939C04E0939B049ECF38
:10384000FD01DC01C0CF13821282D7CFB0E0A0E02F
:10385000ECE2FCE10C9475198C01009751F4CB015A
:103860000E94011B8C01C801CDB7DEB7E0E10C94CA
:103870009119FC01E60FF71F9C0122503109E21754
:10388000F30708F49DC0D901CD91DC911197C617BB
:10389000D70798F0C530D10530F3CE0104978617CD
:1038A000970708F3C61BD70B2297C193D1936D934B
:1038B0007C93CF010E949D1BD6CF5B01AC1ABD0A41
:1038C0004C018C0E9D1EA0919B04B0919C04512C28
:1038D000412CF12CE12C109731F5809199049091B5
:1038E0009A048815990509F05CC04616570608F039
:1038F00058C08091000190910101009741F48DB76B
:103900009EB74091040150910501841B950BE81767
:10391000F90708F055C0F0939A04E0939904F9016F
:1039200071836083A0CF8D919C91119712966C90BA
:10393000129713967C901397A815B90559F56C0149
:1039400042E0C40ED11CCA14DB0420F1AC014A19B8
:103950005B09DA011296159780F0628273825183B7
:103960004083D9016D937C93E114F10471F0D70188
:103970001396FC93EE93129776CF22968C0F9D1F91
:10398000F90191838083F301EFCFF0939C04E093DE
:103990009B0469CF4816590608F42C017D01D30118
:1039A0009ACFCB010E94011B7C01009749F0AE0128
:1039B000B8010E94E31CC8010E949D1B870153CFE0
:1039C00010E000E050CFFB01DC0102C001900D923D
:1039D00041505040D8F70895FB01DC0101900D9251
:1039E0000020E1F7089510E0CDEFD0E004C0FE0123
:1039F0000E94FB1A2196CE3FD107C9F7F894FFCF5A
:103A000000009D04800000000000E8029A01BD0350
:103A1000E70244035C03CF020D0A004F4B004361F1
:103A20006D62696F20636F72726563746F0A5065AF
:103A3000736F206D696E696D6F2065737461626C60
:103A4000653A200045520056616C6F7220696E63C2
:103A50006F72726563746F0A496E67726573652071
:103A6000756E2076616C6F72206465200020612085
:103A7000004573637269626120276D27202B202720
:103A8000456E7669617227207061726120696E6788
:103A9000726573617220616C206D656E752064655E
:103AA00020636F6E66696775726163696F6E20640B
:103AB000652062616C616E7A610050004D454E5523
:103AC0000A0A612E2045737461626C656365722019
:103AD000657363616C61200A622E205065736F20EC
:103AE0006D696E696D6F2065737461626C65200A23
:103AF000632E2056656C6F6369646164204573743E
:103B00006162696C697A6163696F6E200A672E2051
:103B1000477561726461722076616C6F72657320A3
:103B2000656E20454550524F4D20200A722E20527E
:103B30006565737461626C656365722076616C6F34
:103B400072657320706F72206465666563746F20A0
:103B50000A732E2053616C697200457363616C6156
:103B60002061637475616C3A2000496E67726573F9
:103B70006520656C207065736F20636F6E6F63697D
:103B8000646F20656E204B67202773272070617259
:103B9000612073616C6972005065736F206D696E8E
:103BA000696D6F2065737461626C65206163747503
:103BB000616C3A2000206F202773272070617261AA
:103BC0002073616C69720056656C6F63696461642F
:103BD000206465204573746162696C697A61636908
:103BE0006F6E3A2000C2BF446573656120677561DE
:103BF00072646172206C6F732076616C6F72657392
:103C00002065737461626C656369646F7320737C93
:103C10006E3F0056616C6F726573206775617264E8
:103C200061646F730056616C6F726573206E6F20F4
:103C3000677561726461646F7300436F6D616E6478
:103C40006F20696E636F72726563746F0053616C8D
:103C500069656E646F2E2E2E0A4C6973746F210095
:103C6000C2BF446573656120726565737461626C7F
:103C7000656365722076616C6F72657320706F7218
:103C8000206465666563746F20737C6E3F005661C7
:103C90006C6F72657320726565737461626C6563C5
:103CA00069646F730056616C6F726573206E6F206C
:103CB000726565737461626C656369646F730043F8
:103CC000616D62696F20636F72726563746F0A560B
:103CD0006172696163696F6E3A20004E7565766145
:103CE00020657363616C612065737461626C6563E8
:083CF0006964613A20004500FF
:107800000C94343C0C94513C0C94513C0C94513CE1
:107810000C94513C0C94513C0C94513C0C94513CB4
:107820000C94513C0C94513C0C94513C0C94513CA4
:107830000C94513C0C94513C0C94513C0C94513C94
:107840000C94513C0C94513C0C94513C0C94513C84
:107850000C94513C0C94513C0C94513C0C94513C74
:107860000C94513C0C94513C11241FBECFEFD8E036
:10787000DEBFCDBF11E0A0E0B1E0ECE9FFE702C060
:1078800005900D92A230B107D9F712E0A2E0B1E065
:1078900001C01D92AD30B107E1F70E942D3D0C945F
:1078A000CC3F0C94003C982F959595959595959582
:1078B000905D8F708A307CF0282F295A8091C0000B
:1078C00085FFFCCF9093C6008091C00085FFFCCF60
:1078D0002093C6000895282F205DF0CF982F809127
:1078E000C00085FFFCCF9093C6000895EF92FF92F1
:1078F0000F931F93EE24FF2487018091C00087FD22
:1079000017C00894E11CF11C011D111D81E4E8164B
:1079100082E4F8068FE0080780E0180770F3E09132
:107920000401F091050109958091C00087FFE9CF1E
:107930008091C6001F910F91FF90EF9008950E94D3
:10794000763C982F8091C00085FFFCCF9093C600B5
:1079500091362CF490330CF09053892F089597555D
:10796000892F08951F930E949F3C182F0E949F3CCF
:107970001295107F810F1F9108951F93182F882350
:1079800021F00E94763C1150E1F71F9108951F935A
:10799000182F0E94763C803249F0809103018F5F5E
:1079A000809303018530C1F01F9108958091C0003C
:1079B00085FFFCCF84E18093C6008091C00085FFE5
:1079C000FCCF1093C6008091C00085FFFCCF80E102
:1079D0008093C6001F910895E0910401F091050184
:1079E00009951F9108950E94763C803241F0809164
:1079F00003018F5F80930301853081F008958091AA
:107A0000C00085FFFCCF84E18093C6008091C00058
:107A100085FFFCCF80E18093C6000895E0910401CA
:107A2000F09105010995089540E951E08823A1F0FE
:107A30002D9A28EE33E0FA013197F1F721503040CA
:107A4000D1F72D9828EE33E0FA013197F1F7215064
:107A50003040D1F7815061F708953F924F925F9285
:107A60006F927F928F929F92AF92BF92CF92DF924E
:107A7000EF92FF920F931F93CF93DF93000080E16B
:107A80008093C4001092C50088E18093C10086E015
:107A90008093C2005098589A259A81E00E94143D24
:107AA00024E1F22E9EE1E92E85E9D82E0FE0C02ECA
:107AB00010E1B12EAA24A394B1E49B2EA6E58A2E50
:107AC000F2E57F2EE0E26E2E79E4572E63E5462E36
:107AD00050E5352E0E94763C8033B1F18133B9F107
:107AE000803409F46FC0813409F476C0823409F41B
:107AF00085C0853409F488C0803531F1823521F1A3
:107B0000813511F1853509F485C0863509F48DC0BC
:107B1000843609F496C0843709F403C1853709F423
:107B200072C1863709F466C0809103018F5F80932C
:107B30000301853079F6E0910401F0910501099582
:107B40000E94763C803351F60E94F33CC3CF0E94E2
:107B5000763C803249F78091C00085FFFCCFF092DF
:107B6000C6008091C00085FFFCCF9092C600809136
:107B7000C00085FFFCCF8092C6008091C00085FFC9
:107B8000FCCF7092C6008091C00085FFFCCF609250
:107B9000C6008091C00085FFFCCF5092C600809146
:107BA000C00085FFFCCF4092C6008091C00085FFD9
:107BB000FCCF3092C6008091C00085FFFCCFB09210
:107BC000C60088CF0E94763C863808F4BDCF0E945C
:107BD000763C0E94F33C7ECF0E94763C803809F4CC
:107BE0009CC0813809F40BC1823809F43CC1883942
:107BF00009F48FC080E00E94C73C6CCF84E10E94F2
:107C0000BD3C0E94F33C66CF85E00E94BD3C0E94D3
:107C1000F33C60CF0E94763C809306010E94763C44
:107C2000809307010E94F33C55CF0E94763C80333D
:107C300009F41DC183E00E94BD3C80E00E94C73C66
:107C400049CF0E94763C809309020E94763C809343
:107C5000080280910C028E7F80930C020E94763C79
:107C6000853409F415C18091080290910902892B8D
:107C700089F000E010E00E94763CF801E85FFE4FDA
:107C800080830F5F1F4F80910802909109020817AF
:107C9000190788F30E94763C803209F045CF809125
:107CA0000C0280FF01C16091060170910701660F0F
:107CB000771F7093070160930601A0910802B091AD
:107CC00009021097C9F0E8E0F1E09B01AD014E0F09
:107CD0005F1FF999FECF32BD21BD819180BDFA9A17
:107CE000F99A2F5F3F4FE417F50799F76A0F7B1F4B
:107CF00070930701609306018091C00085FFFCCF5F
:107D0000F092C6008091C00085FFFCCFB092C60003
:107D1000E1CE83E00E94C73CDDCE82E00E94C73CFA
:107D2000D9CE0E94763C809309020E94763C8093D3
:107D300008028091060190910701880F991F909386
:107D40000701809306010E94763C853409F4A6C0A1
:107D500080910C028E7F80930C020E94763C8032D0
:107D600009F0B8CE8091C00085FFFCCFF092C6002C
:107D7000609108027091090261157105B9F140E046
:107D800050E080910C02A82FA170B82FB27011C0E2
:107D9000BB2309F45CC0E0910601F0910701319624
:107DA000F0930701E09306014F5F5F4F46175707B7
:107DB000E8F4AA2369F3F999FECF209106013091E6
:107DC000070132BD21BDF89A90B58091C00085FFB2
:107DD000FCCF9093C6002F5F3F4F30930701209355
:107DE00006014F5F5F4F4617570718F38091C00099
:107DF00085FDE5CE8091C00085FFF8CFE0CE81E023
:107E00000E94C73C67CE0E94763C803209F08CCE3F
:107E10008091C00085FFFCCFF092C6008091C00029
:107E200085FFFCCFE092C6008091C00085FFFCCFAB
:107E3000D092C6008091C00085FFFCCFC092C600E2
:107E40008091C00085FFFCCFB092C60043CEE09188
:107E50000601F091070194918091C00085FFFCCF4D
:107E60009093C6009CCF80E10E94C73C33CE0E9415
:107E7000763C0E94763C182F0E94763C112309F430
:107E800083C0113009F484C08FE00E94C73C22CE29
:107E900080910C02816080930C02E5CE80910C02EF
:107EA000816080930C0259CF809107018823880F4D
:107EB000880B8A2180930B02809106019091070123
:107EC000880F991F90930701809306018091080203
:107ED00080FF09C080910802909109020196909359
:107EE000090280930802F894F999FECF1127E091D6
:107EF0000601F0910701C8E0D1E08091080290915D
:107F00000902103091F40091570001700130D9F34B
:107F100003E000935700E89500915700017001308D
:107F2000D9F301E100935700E89509901990009169
:107F3000570001700130D9F301E000935700E89534
:107F40001395103498F011270091570001700130FB
:107F5000D9F305E000935700E895009157000170B0
:107F60000130D9F301E100935700E895329602976A
:107F700009F0C7CF103011F00296E5CF112480919F
:107F8000C00085FFB9CEBCCE8EE10E94C73CA2CD19
:0E7F900085E90E94C73C9ECDF894FFCF80008B
:00000001FF
